{
  "_format": "hh-sol-artifact-1",
  "contractName": "Staking",
  "sourceName": "contracts/Staking.sol",
  "abi": [
    {
      "inputs": [
        {
          "internalType": "address",
          "name": "_eip20",
          "type": "address"
        },
        {
          "internalType": "uint256",
          "name": "_minimumStake",
          "type": "uint256"
        },
        {
          "internalType": "uint32",
          "name": "_lockPeriod",
          "type": "uint32"
        }
      ],
      "stateMutability": "nonpayable",
      "type": "constructor"
    },
    {
      "anonymous": false,
      "inputs": [
        {
          "indexed": true,
          "internalType": "address",
          "name": "staker",
          "type": "address"
        },
        {
          "indexed": false,
          "internalType": "uint256",
          "name": "tokens",
          "type": "uint256"
        },
        {
          "indexed": true,
          "internalType": "address",
          "name": "escrowAddress",
          "type": "address"
        },
        {
          "indexed": false,
          "internalType": "uint256",
          "name": "closedAt",
          "type": "uint256"
        }
      ],
      "name": "AllocationClosed",
      "type": "event"
    },
    {
      "anonymous": false,
      "inputs": [
        {
          "indexed": true,
          "internalType": "address",
          "name": "previousOwner",
          "type": "address"
        },
        {
          "indexed": true,
          "internalType": "address",
          "name": "newOwner",
          "type": "address"
        }
      ],
      "name": "OwnershipTransferred",
      "type": "event"
    },
    {
      "anonymous": false,
      "inputs": [
        {
          "indexed": true,
          "internalType": "uint32",
          "name": "lockPeriod",
          "type": "uint32"
        }
      ],
      "name": "SetLockPeriod",
      "type": "event"
    },
    {
      "anonymous": false,
      "inputs": [
        {
          "indexed": true,
          "internalType": "uint256",
          "name": "minimumStake",
          "type": "uint256"
        }
      ],
      "name": "SetMinumumStake",
      "type": "event"
    },
    {
      "anonymous": false,
      "inputs": [
        {
          "indexed": true,
          "internalType": "address",
          "name": "rewardPool",
          "type": "address"
        }
      ],
      "name": "SetRewardPool",
      "type": "event"
    },
    {
      "anonymous": false,
      "inputs": [
        {
          "indexed": true,
          "internalType": "address",
          "name": "staker",
          "type": "address"
        },
        {
          "indexed": false,
          "internalType": "uint256",
          "name": "tokens",
          "type": "uint256"
        },
        {
          "indexed": true,
          "internalType": "address",
          "name": "escrowAddress",
          "type": "address"
        },
        {
          "indexed": false,
          "internalType": "uint256",
          "name": "createdAt",
          "type": "uint256"
        }
      ],
      "name": "StakeAllocated",
      "type": "event"
    },
    {
      "anonymous": false,
      "inputs": [
        {
          "indexed": true,
          "internalType": "address",
          "name": "staker",
          "type": "address"
        },
        {
          "indexed": false,
          "internalType": "uint256",
          "name": "tokens",
          "type": "uint256"
        }
      ],
      "name": "StakeDeposited",
      "type": "event"
    },
    {
      "anonymous": false,
      "inputs": [
        {
          "indexed": true,
          "internalType": "address",
          "name": "staker",
          "type": "address"
        },
        {
          "indexed": false,
          "internalType": "uint256",
          "name": "tokens",
          "type": "uint256"
        },
        {
          "indexed": false,
          "internalType": "uint256",
          "name": "until",
          "type": "uint256"
        }
      ],
      "name": "StakeLocked",
      "type": "event"
    },
    {
      "anonymous": false,
      "inputs": [
        {
          "indexed": true,
          "internalType": "address",
          "name": "staker",
          "type": "address"
        },
        {
          "indexed": false,
          "internalType": "uint256",
          "name": "tokens",
          "type": "uint256"
        }
      ],
      "name": "StakeSlashed",
      "type": "event"
    },
    {
      "anonymous": false,
      "inputs": [
        {
          "indexed": true,
          "internalType": "address",
          "name": "staker",
          "type": "address"
        },
        {
          "indexed": false,
          "internalType": "uint256",
          "name": "tokens",
          "type": "uint256"
        }
      ],
      "name": "StakeWithdrawn",
      "type": "event"
    },
    {
      "inputs": [
        {
          "internalType": "address",
          "name": "_escrowAddress",
          "type": "address"
        },
        {
          "internalType": "uint256",
          "name": "_tokens",
          "type": "uint256"
        }
      ],
      "name": "allocate",
      "outputs": [],
      "stateMutability": "nonpayable",
      "type": "function"
    },
    {
      "inputs": [
        {
          "internalType": "address",
          "name": "",
          "type": "address"
        }
      ],
      "name": "allocations",
      "outputs": [
        {
          "internalType": "address",
          "name": "escrowAddress",
          "type": "address"
        },
        {
          "internalType": "address",
          "name": "staker",
          "type": "address"
        },
        {
          "internalType": "uint256",
          "name": "tokens",
          "type": "uint256"
        },
        {
          "internalType": "uint256",
          "name": "createdAt",
          "type": "uint256"
        },
        {
          "internalType": "uint256",
          "name": "closedAt",
          "type": "uint256"
        }
      ],
      "stateMutability": "view",
      "type": "function"
    },
    {
      "inputs": [
        {
          "internalType": "address",
          "name": "_escrowAddress",
          "type": "address"
        }
      ],
      "name": "closeAllocation",
      "outputs": [],
      "stateMutability": "nonpayable",
      "type": "function"
    },
    {
      "inputs": [],
      "name": "eip20",
      "outputs": [
        {
          "internalType": "address",
          "name": "",
          "type": "address"
        }
      ],
      "stateMutability": "view",
      "type": "function"
    },
    {
      "inputs": [
        {
          "internalType": "address",
          "name": "_escrowAddress",
          "type": "address"
        }
      ],
      "name": "getAllocation",
      "outputs": [
        {
          "components": [
            {
              "internalType": "address",
              "name": "escrowAddress",
              "type": "address"
            },
            {
              "internalType": "address",
              "name": "staker",
              "type": "address"
            },
            {
              "internalType": "uint256",
              "name": "tokens",
              "type": "uint256"
            },
            {
              "internalType": "uint256",
              "name": "createdAt",
              "type": "uint256"
            },
            {
              "internalType": "uint256",
              "name": "closedAt",
              "type": "uint256"
            }
          ],
          "internalType": "struct IStaking.Allocation",
          "name": "",
          "type": "tuple"
        }
      ],
      "stateMutability": "view",
      "type": "function"
    },
    {
      "inputs": [
        {
          "internalType": "address",
          "name": "_escrowAddress",
          "type": "address"
        }
      ],
      "name": "getAllocationState",
      "outputs": [
        {
          "internalType": "enum IStaking.AllocationState",
          "name": "",
          "type": "uint8"
        }
      ],
      "stateMutability": "view",
      "type": "function"
    },
    {
      "inputs": [],
      "name": "getListOfStakers",
      "outputs": [
        {
          "internalType": "address[]",
          "name": "",
          "type": "address[]"
        },
        {
          "components": [
            {
              "internalType": "uint256",
              "name": "tokensStaked",
              "type": "uint256"
            },
            {
              "internalType": "uint256",
              "name": "tokensAllocated",
              "type": "uint256"
            },
            {
              "internalType": "uint256",
              "name": "tokensLocked",
              "type": "uint256"
            },
            {
              "internalType": "uint256",
              "name": "tokensLockedUntil",
              "type": "uint256"
            }
          ],
          "internalType": "struct Stakes.Staker[]",
          "name": "",
          "type": "tuple[]"
        }
      ],
      "stateMutability": "view",
      "type": "function"
    },
    {
      "inputs": [
        {
          "internalType": "address",
          "name": "_staker",
          "type": "address"
        }
      ],
      "name": "getStakedTokens",
      "outputs": [
        {
          "internalType": "uint256",
          "name": "",
          "type": "uint256"
        }
      ],
      "stateMutability": "view",
      "type": "function"
    },
    {
      "inputs": [
        {
          "internalType": "address",
          "name": "_staker",
          "type": "address"
        }
      ],
      "name": "getStaker",
      "outputs": [
        {
          "components": [
            {
              "internalType": "uint256",
              "name": "tokensStaked",
              "type": "uint256"
            },
            {
              "internalType": "uint256",
              "name": "tokensAllocated",
              "type": "uint256"
            },
            {
              "internalType": "uint256",
              "name": "tokensLocked",
              "type": "uint256"
            },
            {
              "internalType": "uint256",
              "name": "tokensLockedUntil",
              "type": "uint256"
            }
          ],
          "internalType": "struct Stakes.Staker",
          "name": "",
          "type": "tuple"
        }
      ],
      "stateMutability": "view",
      "type": "function"
    },
    {
      "inputs": [
        {
          "internalType": "address",
          "name": "_staker",
          "type": "address"
        }
      ],
      "name": "hasAvailableStake",
      "outputs": [
        {
          "internalType": "bool",
          "name": "",
          "type": "bool"
        }
      ],
      "stateMutability": "view",
      "type": "function"
    },
    {
      "inputs": [
        {
          "internalType": "address",
          "name": "_staker",
          "type": "address"
        }
      ],
      "name": "hasStake",
      "outputs": [
        {
          "internalType": "bool",
          "name": "",
          "type": "bool"
        }
      ],
      "stateMutability": "view",
      "type": "function"
    },
    {
      "inputs": [
        {
          "internalType": "address",
          "name": "_escrowAddress",
          "type": "address"
        }
      ],
      "name": "isAllocation",
      "outputs": [
        {
          "internalType": "bool",
          "name": "",
          "type": "bool"
        }
      ],
      "stateMutability": "view",
      "type": "function"
    },
    {
      "inputs": [],
      "name": "lockPeriod",
      "outputs": [
        {
          "internalType": "uint32",
          "name": "",
          "type": "uint32"
        }
      ],
      "stateMutability": "view",
      "type": "function"
    },
    {
      "inputs": [],
      "name": "minimumStake",
      "outputs": [
        {
          "internalType": "uint256",
          "name": "",
          "type": "uint256"
        }
      ],
      "stateMutability": "view",
      "type": "function"
    },
    {
      "inputs": [],
      "name": "owner",
      "outputs": [
        {
          "internalType": "address",
          "name": "",
          "type": "address"
        }
      ],
      "stateMutability": "view",
      "type": "function"
    },
    {
      "inputs": [],
      "name": "renounceOwnership",
      "outputs": [],
      "stateMutability": "nonpayable",
      "type": "function"
    },
    {
      "inputs": [],
      "name": "rewardPool",
      "outputs": [
        {
          "internalType": "address",
          "name": "",
          "type": "address"
        }
      ],
      "stateMutability": "view",
      "type": "function"
    },
    {
      "inputs": [
        {
          "internalType": "uint32",
          "name": "_lockPeriod",
          "type": "uint32"
        }
      ],
      "name": "setLockPeriod",
      "outputs": [],
      "stateMutability": "nonpayable",
      "type": "function"
    },
    {
      "inputs": [
        {
          "internalType": "uint256",
          "name": "_minimumStake",
          "type": "uint256"
        }
      ],
      "name": "setMinimumStake",
      "outputs": [],
      "stateMutability": "nonpayable",
      "type": "function"
    },
    {
      "inputs": [
        {
          "internalType": "address",
          "name": "_rewardPool",
          "type": "address"
        }
      ],
      "name": "setRewardPool",
      "outputs": [],
      "stateMutability": "nonpayable",
      "type": "function"
    },
    {
      "inputs": [
        {
          "internalType": "address",
          "name": "_slasher",
          "type": "address"
        },
        {
          "internalType": "address",
          "name": "_staker",
          "type": "address"
        },
        {
          "internalType": "address",
          "name": "_escrowAddress",
          "type": "address"
        },
        {
          "internalType": "uint256",
          "name": "_tokens",
          "type": "uint256"
        }
      ],
      "name": "slash",
      "outputs": [],
      "stateMutability": "nonpayable",
      "type": "function"
    },
    {
      "inputs": [
        {
          "internalType": "uint256",
          "name": "_tokens",
          "type": "uint256"
        }
      ],
      "name": "stake",
      "outputs": [],
      "stateMutability": "nonpayable",
      "type": "function"
    },
    {
      "inputs": [
        {
          "internalType": "uint256",
          "name": "",
          "type": "uint256"
        }
      ],
      "name": "stakers",
      "outputs": [
        {
          "internalType": "address",
          "name": "",
          "type": "address"
        }
      ],
      "stateMutability": "view",
      "type": "function"
    },
    {
      "inputs": [
        {
          "internalType": "address",
          "name": "",
          "type": "address"
        }
      ],
      "name": "stakes",
      "outputs": [
        {
          "internalType": "uint256",
          "name": "tokensStaked",
          "type": "uint256"
        },
        {
          "internalType": "uint256",
          "name": "tokensAllocated",
          "type": "uint256"
        },
        {
          "internalType": "uint256",
          "name": "tokensLocked",
          "type": "uint256"
        },
        {
          "internalType": "uint256",
          "name": "tokensLockedUntil",
          "type": "uint256"
        }
      ],
      "stateMutability": "view",
      "type": "function"
    },
    {
      "inputs": [
        {
          "internalType": "address",
          "name": "newOwner",
          "type": "address"
        }
      ],
      "name": "transferOwnership",
      "outputs": [],
      "stateMutability": "nonpayable",
      "type": "function"
    },
    {
      "inputs": [
        {
          "internalType": "uint256",
          "name": "_tokens",
          "type": "uint256"
        }
      ],
      "name": "unstake",
      "outputs": [],
      "stateMutability": "nonpayable",
      "type": "function"
    },
    {
      "inputs": [],
      "name": "withdraw",
      "outputs": [],
      "stateMutability": "nonpayable",
      "type": "function"
    }
  ],
  "bytecode": "0x60806040523480156200001157600080fd5b506040516200484638038062004846833981810160405281019062000037919062000375565b6000620000496200015360201b60201c565b9050806000806101000a81548173ffffffffffffffffffffffffffffffffffffffff021916908373ffffffffffffffffffffffffffffffffffffffff1602179055508073ffffffffffffffffffffffffffffffffffffffff16600073ffffffffffffffffffffffffffffffffffffffff167f8be0079c531659141344cd1fd0a4f28419497f9722a3daafe3b4186f6b6457e060405160405180910390a35082600160006101000a81548173ffffffffffffffffffffffffffffffffffffffff021916908373ffffffffffffffffffffffffffffffffffffffff16021790555062000139826200015b60201b60201c565b6200014a81620001da60201b60201c565b50505062000454565b600033905090565b60008111620001a1576040517f08c379a0000000000000000000000000000000000000000000000000000000008152600401620001989062000432565b60405180910390fd5b806003819055506003547f4ae07ff10245d5c3330b9a15e8c6b8644ea81b656ff7d5428edda75e77d061cd60405160405180910390a250565b60008163ffffffff161162000226576040517f08c379a00000000000000000000000000000000000000000000000000000000081526004016200021d9062000432565b60405180910390fd5b80600460006101000a81548163ffffffff021916908363ffffffff160217905550600460009054906101000a900463ffffffff1663ffffffff167f4cabd6339016cba9857f365bca7bc3c7e1976823b85052fd7281d313f52c8ae860405160405180910390a250565b600080fd5b600073ffffffffffffffffffffffffffffffffffffffff82169050919050565b6000620002c18262000294565b9050919050565b620002d381620002b4565b8114620002df57600080fd5b50565b600081519050620002f381620002c8565b92915050565b6000819050919050565b6200030e81620002f9565b81146200031a57600080fd5b50565b6000815190506200032e8162000303565b92915050565b600063ffffffff82169050919050565b6200034f8162000334565b81146200035b57600080fd5b50565b6000815190506200036f8162000344565b92915050565b6000806000606084860312156200039157620003906200028f565b5b6000620003a186828701620002e2565b9350506020620003b4868287016200031d565b9250506040620003c7868287016200035e565b9150509250925092565b600082825260208201905092915050565b7f4d757374206265206120706f736974697665206e756d62657200000000000000600082015250565b60006200041a601983620003d1565b91506200042782620003e2565b602082019050919050565b600060208201905081810360008301526200044d816200040b565b9050919050565b6143e280620004646000396000f3fe608060405234801561001057600080fd5b50600436106101a95760003560e01c806370b97cb5116100f9578063b78b52df11610097578063f1d60d6611610071578063f1d60d66146104c2578063f2fde38b146104f2578063f489f23b1461050e578063fd5e6dd11461052a576101a9565b8063b78b52df14610458578063e73e14bf14610474578063ec5ffac2146104a4576101a9565b80638da5cb5b116100d35780638da5cb5b146103be57806398c657dc146103dc578063a23c44b11461040c578063a694fc3a1461043c576101a9565b806370b97cb514610379578063715018a61461039857806378238c37146103a2576101a9565b80633aa63c611161016657806352a9039c1161014057806352a9039c146102db57806363c28db11461030f57806366666aa91461033f57806368f39a071461035d576101a9565b80633aa63c61146102975780633ccfd60b146102b35780633fd8b02f146102bd576101a9565b80630e022923146101ae57806316934fc4146101de578063196214d3146102115780631af963aa1461022f578063233e99031461025f5780632e17de781461027b575b600080fd5b6101c860048036038101906101c391906131a6565b61055a565b6040516101d59190613263565b60405180910390f35b6101f860048036038101906101f391906131a6565b610572565b604051610208949392919061328d565b60405180910390f35b6102196105a2565b60405161022691906132e1565b60405180910390f35b610249600480360381019061024491906131a6565b6105c8565b6040516102569190613317565b60405180910390f35b6102796004803603810190610274919061335e565b61064d565b005b6102956004803603810190610290919061335e565b6106ee565b005b6102b160048036038101906102ac919061338b565b610a79565b005b6102bb610e96565b005b6102c5610f61565b6040516102d29190613411565b60405180910390f35b6102f560048036038101906102f091906131a6565b610f77565b60405161030695949392919061342c565b60405180910390f35b610329600480360381019061032491906131a6565b610fed565b604051610336919061347f565b60405180910390f35b610347611039565b60405161035491906132e1565b60405180910390f35b610377600480360381019061037291906131a6565b61105f565b005b61038161112b565b60405161038f92919061364d565b60405180910390f35b6103a06113a1565b005b6103bc60048036038101906103b791906131a6565b6114f4565b005b6103c6611595565b6040516103d391906132e1565b60405180910390f35b6103f660048036038101906103f191906131a6565b6115be565b60405161040391906136fb565b60405180910390f35b610426600480360381019061042191906131a6565b6115d0565b604051610433919061376b565b60405180910390f35b6104566004803603810190610451919061335e565b611651565b005b610472600480360381019061046d9190613786565b6119c7565b005b61048e600480360381019061048991906131a6565b611a96565b60405161049b9190613317565b60405180910390f35b6104ac611ae4565b6040516104b9919061347f565b60405180910390f35b6104dc60048036038101906104d791906131a6565b611aea565b6040516104e99190613317565b60405180910390f35b61050c600480360381019061050791906131a6565b611b23565b005b610528600480360381019061052391906137f2565b611ce5565b005b610544600480360381019061053f919061335e565b611d86565b60405161055191906132e1565b60405180910390f35b6105626130c0565b61056b82611dc5565b9050919050565b60056020528060005260406000206000915090508060000154908060010154908060020154908060030154905084565b600160009054906101000a900473ffffffffffffffffffffffffffffffffffffffff1681565b600080610645600560008573ffffffffffffffffffffffffffffffffffffffff1673ffffffffffffffffffffffffffffffffffffffff168152602001908152602001600020604051806080016040529081600082015481526020016001820154815260200160028201548152602001600382015481525050611ee8565b119050919050565b610655611f10565b73ffffffffffffffffffffffffffffffffffffffff1660008054906101000a900473ffffffffffffffffffffffffffffffffffffffff1673ffffffffffffffffffffffffffffffffffffffff16146106e2576040517f08c379a00000000000000000000000000000000000000000000000000000000081526004016106d99061387c565b60405180910390fd5b6106eb81611f18565b50565b336000600560008373ffffffffffffffffffffffffffffffffffffffff1673ffffffffffffffffffffffffffffffffffffffff168152602001908152602001600020604051806080016040529081600082015481526020016001820154815260200160028201548152602001600382015481525050905060008160000151116107ac576040517f08c379a00000000000000000000000000000000000000000000000000000000081526004016107a3906138e8565b60405180910390fd5b6000600560003373ffffffffffffffffffffffffffffffffffffffff1673ffffffffffffffffffffffffffffffffffffffff16815260200190815260200160002090506000816000015411610836576040517f08c379a000000000000000000000000000000000000000000000000000000000815260040161082d90613954565b60405180910390fd5b60008411610879576040517f08c379a000000000000000000000000000000000000000000000000000000000815260040161087090613954565b60405180910390fd5b836108b682604051806080016040529081600082015481526020016001820154815260200160028201548152602001600382015481525050611ee8565b10156108f7576040517f08c379a00000000000000000000000000000000000000000000000000000000081526004016108ee906139c0565b60405180910390fd5b60006109478561093984604051806080016040529081600082015481526020016001820154815260200160028201548152602001600382015481525050611f94565b611fb890919063ffffffff16565b9050600081148061095a57506003548110155b610999576040517f08c379a000000000000000000000000000000000000000000000000000000000815260040161099090613a52565b60405180910390fd5b60006109d783604051806080016040529081600082015481526020016001820154815260200160028201548152602001600382015481525050612002565b905060008111156109ec576109eb33612034565b5b610a1986600460009054906101000a900463ffffffff1663ffffffff16856121ca9092919063ffffffff16565b3373ffffffffffffffffffffffffffffffffffffffff167fa5ae833d0bb1dcd632d98a8b70973e8516812898e19bf27b70071ebc8dc52c0184600201548560030154604051610a69929190613a72565b60405180910390a2505050505050565b610a81611f10565b73ffffffffffffffffffffffffffffffffffffffff1660008054906101000a900473ffffffffffffffffffffffffffffffffffffffff1673ffffffffffffffffffffffffffffffffffffffff1614610b0e576040517f08c379a0000000000000000000000000000000000000000000000000000000008152600401610b059061387c565b60405180910390fd5b600073ffffffffffffffffffffffffffffffffffffffff168273ffffffffffffffffffffffffffffffffffffffff161415610b7e576040517f08c379a0000000000000000000000000000000000000000000000000000000008152600401610b7590613ae7565b60405180910390fd5b6000600560008573ffffffffffffffffffffffffffffffffffffffff1673ffffffffffffffffffffffffffffffffffffffff16815260200190815260200160002090506000600760008573ffffffffffffffffffffffffffffffffffffffff1673ffffffffffffffffffffffffffffffffffffffff16815260200190815260200160002090506000816002015411610c4b576040517f08c379a0000000000000000000000000000000000000000000000000000000008152600401610c4290613954565b60405180910390fd5b8060020154831115610c92576040517f08c379a0000000000000000000000000000000000000000000000000000000008152600401610c8990613b79565b60405180910390fd5b610ca5838361223c90919063ffffffff16565b610cbc838260020154611fb890919063ffffffff16565b8160020181905550610cd7838361225f90919063ffffffff16565b6000600160009054906101000a900473ffffffffffffffffffffffffffffffffffffffff1690508073ffffffffffffffffffffffffffffffffffffffff1663a9059cbb600260009054906101000a900473ffffffffffffffffffffffffffffffffffffffff16866040518363ffffffff1660e01b8152600401610d5b929190613b99565b602060405180830381600087803b158015610d7557600080fd5b505af1158015610d89573d6000803e3d6000fd5b505050506040513d601f19601f82011682018060405250810190610dad9190613bee565b50600260009054906101000a900473ffffffffffffffffffffffffffffffffffffffff1673ffffffffffffffffffffffffffffffffffffffff1663d0ed26ae8689876040518463ffffffff1660e01b8152600401610e0d93929190613c1b565b600060405180830381600087803b158015610e2757600080fd5b505af1158015610e3b573d6000803e3d6000fd5b505050508673ffffffffffffffffffffffffffffffffffffffff167f83f5ea8bea7627d95274e94dd7e9e3d7e82cb55feab513ed49e325232dcc61e085604051610e85919061347f565b60405180910390a250505050505050565b336000600560008373ffffffffffffffffffffffffffffffffffffffff1673ffffffffffffffffffffffffffffffffffffffff16815260200190815260200160002060405180608001604052908160008201548152602001600182015481526020016002820154815260200160038201548152505090506000816000015111610f54576040517f08c379a0000000000000000000000000000000000000000000000000000000008152600401610f4b906138e8565b60405180910390fd5b610f5d33612034565b5050565b600460009054906101000a900463ffffffff1681565b60076020528060005260406000206000915090508060000160009054906101000a900473ffffffffffffffffffffffffffffffffffffffff16908060010160009054906101000a900473ffffffffffffffffffffffffffffffffffffffff16908060020154908060030154908060040154905085565b6000600560008373ffffffffffffffffffffffffffffffffffffffff1673ffffffffffffffffffffffffffffffffffffffff168152602001908152602001600020600001549050919050565b600260009054906101000a900473ffffffffffffffffffffffffffffffffffffffff1681565b336000600560008373ffffffffffffffffffffffffffffffffffffffff1673ffffffffffffffffffffffffffffffffffffffff1681526020019081526020016000206040518060800160405290816000820154815260200160018201548152602001600282015481526020016003820154815250509050600081600001511161111d576040517f08c379a0000000000000000000000000000000000000000000000000000000008152600401611114906138e8565b60405180910390fd5b61112683612282565b505050565b606080600060068054806020026020016040519081016040528092919081815260200182805480156111b257602002820191906000526020600020905b8160009054906101000a900473ffffffffffffffffffffffffffffffffffffffff1673ffffffffffffffffffffffffffffffffffffffff1681526020019060010190808311611168575b50505050509050600081519050600081141561127257600067ffffffffffffffff8111156111e3576111e2613c52565b5b6040519080825280602002602001820160405280156112115781602001602082028036833780820191505090505b50600067ffffffffffffffff81111561122d5761122c613c52565b5b60405190808252806020026020018201604052801561126657816020015b61125361311b565b81526020019060019003908161124b5790505b5093509350505061139d565b60008167ffffffffffffffff81111561128e5761128d613c52565b5b6040519080825280602002602001820160405280156112c757816020015b6112b461311b565b8152602001906001900390816112ac5790505b50905060005b8281101561139257600560008583815181106112ec576112eb613c81565b5b602002602001015173ffffffffffffffffffffffffffffffffffffffff1673ffffffffffffffffffffffffffffffffffffffff16815260200190815260200160002060405180608001604052908160008201548152602001600182015481526020016002820154815260200160038201548152505082828151811061137457611373613c81565b5b6020026020010181905250808061138a90613cdf565b9150506112cd565b508281945094505050505b9091565b6113a9611f10565b73ffffffffffffffffffffffffffffffffffffffff1660008054906101000a900473ffffffffffffffffffffffffffffffffffffffff1673ffffffffffffffffffffffffffffffffffffffff1614611436576040517f08c379a000000000000000000000000000000000000000000000000000000000815260040161142d9061387c565b60405180910390fd5b600073ffffffffffffffffffffffffffffffffffffffff1660008054906101000a900473ffffffffffffffffffffffffffffffffffffffff1673ffffffffffffffffffffffffffffffffffffffff167f8be0079c531659141344cd1fd0a4f28419497f9722a3daafe3b4186f6b6457e060405160405180910390a360008060006101000a81548173ffffffffffffffffffffffffffffffffffffffff021916908373ffffffffffffffffffffffffffffffffffffffff160217905550565b6114fc611f10565b73ffffffffffffffffffffffffffffffffffffffff1660008054906101000a900473ffffffffffffffffffffffffffffffffffffffff1673ffffffffffffffffffffffffffffffffffffffff1614611589576040517f08c379a00000000000000000000000000000000000000000000000000000000081526004016115809061387c565b60405180910390fd5b61159281612542565b50565b60008060009054906101000a900473ffffffffffffffffffffffffffffffffffffffff16905090565b60006115c982612639565b9050919050565b6115d861311b565b600560008373ffffffffffffffffffffffffffffffffffffffff1673ffffffffffffffffffffffffffffffffffffffff1681526020019081526020016000206040518060800160405290816000820154815260200160018201548152602001600282015481526020016003820154815250509050919050565b60008111611694576040517f08c379a000000000000000000000000000000000000000000000000000000000815260040161168b90613954565b60405180910390fd5b6000600560003373ffffffffffffffffffffffffffffffffffffffff1673ffffffffffffffffffffffffffffffffffffffff16815260200190815260200160002060405180608001604052908160008201548152602001600182015481526020016002820154815260200160038201548152505090506003546117288361171a84611f94565b61286090919063ffffffff16565b1015611769576040517f08c379a000000000000000000000000000000000000000000000000000000000815260040161176090613a52565b60405180910390fd5b60008160000151141561186c5760405180608001604052806000815260200160008152602001600081526020016000815250905080600560003373ffffffffffffffffffffffffffffffffffffffff1673ffffffffffffffffffffffffffffffffffffffff168152602001908152602001600020600082015181600001556020820151816001015560408201518160020155606082015181600301559050506006339080600181540180825580915050600190039060005260206000200160009091909190916101000a81548173ffffffffffffffffffffffffffffffffffffffff021916908373ffffffffffffffffffffffffffffffffffffffff1602179055505b6000600160009054906101000a900473ffffffffffffffffffffffffffffffffffffffff1690508073ffffffffffffffffffffffffffffffffffffffff166323b872dd3330866040518463ffffffff1660e01b81526004016118d093929190613c1b565b602060405180830381600087803b1580156118ea57600080fd5b505af11580156118fe573d6000803e3d6000fd5b505050506040513d601f19601f820116820180604052508101906119229190613bee565b5061197483600560003373ffffffffffffffffffffffffffffffffffffffff1673ffffffffffffffffffffffffffffffffffffffff1681526020019081526020016000206128be90919063ffffffff16565b3373ffffffffffffffffffffffffffffffffffffffff167f0a7bb2e28cc4698aac06db79cf9163bfcc20719286cf59fa7d492ceda1b8edc2846040516119ba919061347f565b60405180910390a2505050565b336000600560008373ffffffffffffffffffffffffffffffffffffffff1673ffffffffffffffffffffffffffffffffffffffff16815260200190815260200160002060405180608001604052908160008201548152602001600182015481526020016002820154815260200160038201548152505090506000816000015111611a85576040517f08c379a0000000000000000000000000000000000000000000000000000000008152600401611a7c906138e8565b60405180910390fd5b611a903385856128e1565b50505050565b600080600560008473ffffffffffffffffffffffffffffffffffffffff1673ffffffffffffffffffffffffffffffffffffffff16815260200190815260200160002060000154119050919050565b60035481565b6000806004811115611aff57611afe613684565b5b611b0883612639565b6004811115611b1a57611b19613684565b5b14159050919050565b611b2b611f10565b73ffffffffffffffffffffffffffffffffffffffff1660008054906101000a900473ffffffffffffffffffffffffffffffffffffffff1673ffffffffffffffffffffffffffffffffffffffff1614611bb8576040517f08c379a0000000000000000000000000000000000000000000000000000000008152600401611baf9061387c565b60405180910390fd5b600073ffffffffffffffffffffffffffffffffffffffff168173ffffffffffffffffffffffffffffffffffffffff161415611c28576040517f08c379a0000000000000000000000000000000000000000000000000000000008152600401611c1f90613d9a565b60405180910390fd5b8073ffffffffffffffffffffffffffffffffffffffff1660008054906101000a900473ffffffffffffffffffffffffffffffffffffffff1673ffffffffffffffffffffffffffffffffffffffff167f8be0079c531659141344cd1fd0a4f28419497f9722a3daafe3b4186f6b6457e060405160405180910390a3806000806101000a81548173ffffffffffffffffffffffffffffffffffffffff021916908373ffffffffffffffffffffffffffffffffffffffff16021790555050565b611ced611f10565b73ffffffffffffffffffffffffffffffffffffffff1660008054906101000a900473ffffffffffffffffffffffffffffffffffffffff1673ffffffffffffffffffffffffffffffffffffffff1614611d7a576040517f08c379a0000000000000000000000000000000000000000000000000000000008152600401611d719061387c565b60405180910390fd5b611d8381612cd0565b50565b60068181548110611d9657600080fd5b906000526020600020016000915054906101000a900473ffffffffffffffffffffffffffffffffffffffff1681565b611dcd6130c0565b600760008373ffffffffffffffffffffffffffffffffffffffff1673ffffffffffffffffffffffffffffffffffffffff1681526020019081526020016000206040518060a00160405290816000820160009054906101000a900473ffffffffffffffffffffffffffffffffffffffff1673ffffffffffffffffffffffffffffffffffffffff1673ffffffffffffffffffffffffffffffffffffffff1681526020016001820160009054906101000a900473ffffffffffffffffffffffffffffffffffffffff1673ffffffffffffffffffffffffffffffffffffffff1673ffffffffffffffffffffffffffffffffffffffff16815260200160028201548152602001600382015481526020016004820154815250509050919050565b6000611f09611ef683612d82565b8360000151611fb890919063ffffffff16565b9050919050565b600033905090565b60008111611f5b576040517f08c379a0000000000000000000000000000000000000000000000000000000008152600401611f5290613954565b60405180910390fd5b806003819055506003547f4ae07ff10245d5c3330b9a15e8c6b8644ea81b656ff7d5428edda75e77d061cd60405160405180910390a250565b6000611fb182604001518360000151611fb890919063ffffffff16565b9050919050565b6000611ffa83836040518060400160405280601e81526020017f536166654d6174683a207375627472616374696f6e206f766572666c6f770000815250612da6565b905092915050565b600080826060015114806120195750816060015143105b15612027576000905061202f565b816040015190505b919050565b600061207d600560008473ffffffffffffffffffffffffffffffffffffffff1673ffffffffffffffffffffffffffffffffffffffff168152602001908152602001600020612e0a565b9050600081116120c2576040517f08c379a00000000000000000000000000000000000000000000000000000000081526004016120b990613e2c565b60405180910390fd5b6000600160009054906101000a900473ffffffffffffffffffffffffffffffffffffffff1690508073ffffffffffffffffffffffffffffffffffffffff1663a9059cbb84846040518363ffffffff1660e01b8152600401612124929190613b99565b602060405180830381600087803b15801561213e57600080fd5b505af1158015612152573d6000803e3d6000fd5b505050506040513d601f19601f820116820180604052508101906121769190613bee565b508273ffffffffffffffffffffffffffffffffffffffff167f8108595eb6bad3acefa9da467d90cc2217686d5c5ac85460f8b7849c840645fc836040516121bd919061347f565b60405180910390a2505050565b60008190506000846002015411156121fc576121f96121ed856003015443612e84565b85600201548486612eb0565b90505b61221383856002015461286090919063ffffffff16565b846002018190555061222e814361286090919063ffffffff16565b846003018190555050505050565b612253818360010154611fb890919063ffffffff16565b82600101819055505050565b612276818360000154611fb890919063ffffffff16565b82600001819055505050565b600061228d82612639565b90506004808111156122a2576122a1613684565b5b8160048111156122b5576122b4613684565b5b146122f5576040517f08c379a00000000000000000000000000000000000000000000000000000000081526004016122ec90613ebe565b60405180910390fd5b6000600760008473ffffffffffffffffffffffffffffffffffffffff1673ffffffffffffffffffffffffffffffffffffffff1681526020019081526020016000206040518060a00160405290816000820160009054906101000a900473ffffffffffffffffffffffffffffffffffffffff1673ffffffffffffffffffffffffffffffffffffffff1673ffffffffffffffffffffffffffffffffffffffff1681526020016001820160009054906101000a900473ffffffffffffffffffffffffffffffffffffffff1673ffffffffffffffffffffffffffffffffffffffff1673ffffffffffffffffffffffffffffffffffffffff1681526020016002820154815260200160038201548152602001600482015481525050905043816080018181525050600061242b82608001518360600151612e84565b905060008111612470576040517f08c379a000000000000000000000000000000000000000000000000000000000815260040161246790613f50565b60405180910390fd5b6124c9826040015160056000856020015173ffffffffffffffffffffffffffffffffffffffff1673ffffffffffffffffffffffffffffffffffffffff16815260200190815260200160002061223c90919063ffffffff16565b8373ffffffffffffffffffffffffffffffffffffffff16826020015173ffffffffffffffffffffffffffffffffffffffff167f9ec6f3fe8a57fd60609439a97d851e335d635eeb931fca0f26d5fc217936b3c684604001518560800151604051612534929190613a72565b60405180910390a350505050565b600073ffffffffffffffffffffffffffffffffffffffff168173ffffffffffffffffffffffffffffffffffffffff1614156125b2576040517f08c379a00000000000000000000000000000000000000000000000000000000081526004016125a990613ae7565b60405180910390fd5b80600260006101000a81548173ffffffffffffffffffffffffffffffffffffffff021916908373ffffffffffffffffffffffffffffffffffffffff1602179055508073ffffffffffffffffffffffffffffffffffffffff167f173d73afad648e625c4a53878536f7a2debed1f51a04f21d728bce3cf534fcc160405160405180910390a250565b600080600760008473ffffffffffffffffffffffffffffffffffffffff1673ffffffffffffffffffffffffffffffffffffffff1681526020019081526020016000209050600073ffffffffffffffffffffffffffffffffffffffff168160010160009054906101000a900473ffffffffffffffffffffffffffffffffffffffff1673ffffffffffffffffffffffffffffffffffffffff1614156126e057600091505061285b565b600083905060008173ffffffffffffffffffffffffffffffffffffffff1663200d2ed26040518163ffffffff1660e01b815260040160206040518083038186803b15801561272d57600080fd5b505afa158015612741573d6000803e3d6000fd5b505050506040513d601f19601f820116820180604052508101906127659190613f95565b90506000836003015414158015612780575060008360020154115b80156127b057506001600581111561279b5761279a613684565b5b8160058111156127ae576127ad613684565b5b145b156127c1576001935050505061285b565b600083600401541480156127f95750600060058111156127e4576127e3613684565b5b8160058111156127f7576127f6613684565b5b145b1561280a576002935050505061285b565b6000836004015414801561284257506004600581111561282d5761282c613684565b5b8160058111156128405761283f613684565b5b145b15612853576004935050505061285b565b600393505050505b919050565b600080828461286f9190613fc2565b9050838110156128b4576040517f08c379a00000000000000000000000000000000000000000000000000000000081526004016128ab90614064565b60405180910390fd5b8091505092915050565b6128d581836000015461286090919063ffffffff16565b82600001819055505050565b600073ffffffffffffffffffffffffffffffffffffffff168273ffffffffffffffffffffffffffffffffffffffff161415612951576040517f08c379a000000000000000000000000000000000000000000000000000000000815260040161294890613ae7565b60405180910390fd5b806129cc600560003373ffffffffffffffffffffffffffffffffffffffff1673ffffffffffffffffffffffffffffffffffffffff168152602001908152602001600020604051806080016040529081600082015481526020016001820154815260200160028201548152602001600382015481525050611ee8565b1015612a0d576040517f08c379a0000000000000000000000000000000000000000000000000000000008152600401612a04906140f6565b60405180910390fd5b60008111612a50576040517f08c379a0000000000000000000000000000000000000000000000000000000008152600401612a4790613954565b60405180910390fd5b60006004811115612a6457612a63613684565b5b612a6d83612639565b6004811115612a7f57612a7e613684565b5b14612abf576040517f08c379a0000000000000000000000000000000000000000000000000000000008152600401612ab690614162565b60405180910390fd5b60006040518060a001604052808473ffffffffffffffffffffffffffffffffffffffff1681526020018573ffffffffffffffffffffffffffffffffffffffff1681526020018381526020014381526020016000815250905080600760008573ffffffffffffffffffffffffffffffffffffffff1673ffffffffffffffffffffffffffffffffffffffff16815260200190815260200160002060008201518160000160006101000a81548173ffffffffffffffffffffffffffffffffffffffff021916908373ffffffffffffffffffffffffffffffffffffffff16021790555060208201518160010160006101000a81548173ffffffffffffffffffffffffffffffffffffffff021916908373ffffffffffffffffffffffffffffffffffffffff160217905550604082015181600201556060820151816003015560808201518160040155905050612c5b8160400151600560008773ffffffffffffffffffffffffffffffffffffffff1673ffffffffffffffffffffffffffffffffffffffff168152602001908152602001600020612f1790919063ffffffff16565b8273ffffffffffffffffffffffffffffffffffffffff168473ffffffffffffffffffffffffffffffffffffffff167fe994fee7ff4d4c7994071d0b9ed626d9b41e4ed5c6126806241b1906a774a2a083604001518460600151604051612cc2929190613a72565b60405180910390a350505050565b60008163ffffffff1611612d19576040517f08c379a0000000000000000000000000000000000000000000000000000000008152600401612d1090613954565b60405180910390fd5b80600460006101000a81548163ffffffff021916908363ffffffff160217905550600460009054906101000a900463ffffffff1663ffffffff167f4cabd6339016cba9857f365bca7bc3c7e1976823b85052fd7281d313f52c8ae860405160405180910390a250565b6000612d9f8260400151836020015161286090919063ffffffff16565b9050919050565b6000838311158290612dee576040517f08c379a0000000000000000000000000000000000000000000000000000000008152600401612de5919061420a565b60405180910390fd5b5060008385612dfd919061422c565b9050809150509392505050565b600080612e4983604051806080016040529081600082015481526020016001820154815260200160028201548152602001600382015481525050612002565b90506000811115612e7b57612e678184612f3a90919063ffffffff16565b612e7a8184612f7590919063ffffffff16565b5b80915050919050565b6000818311612e94576000612ea8565b612ea78284611fb890919063ffffffff16565b5b905092915050565b6000612f0d612ec8838661286090919063ffffffff16565b612eff612ede8587612f9890919063ffffffff16565b612ef1888a612f9890919063ffffffff16565b61286090919063ffffffff16565b61301390919063ffffffff16565b9050949350505050565b612f2e81836001015461286090919063ffffffff16565b82600101819055505050565b612f51818360020154611fb890919063ffffffff16565b8260020181905550600082600201541415612f7157600082600301819055505b5050565b612f8c818360000154611fb890919063ffffffff16565b82600001819055505050565b600080831415612fab576000905061300d565b60008284612fb99190614260565b9050828482612fc891906142e9565b14613008576040517f08c379a0000000000000000000000000000000000000000000000000000000008152600401612fff9061438c565b60405180910390fd5b809150505b92915050565b600061305583836040518060400160405280601a81526020017f536166654d6174683a206469766973696f6e206279207a65726f00000000000081525061305d565b905092915050565b600080831182906130a4576040517f08c379a000000000000000000000000000000000000000000000000000000000815260040161309b919061420a565b60405180910390fd5b50600083856130b391906142e9565b9050809150509392505050565b6040518060a00160405280600073ffffffffffffffffffffffffffffffffffffffff168152602001600073ffffffffffffffffffffffffffffffffffffffff1681526020016000815260200160008152602001600081525090565b6040518060800160405280600081526020016000815260200160008152602001600081525090565b600080fd5b600073ffffffffffffffffffffffffffffffffffffffff82169050919050565b600061317382613148565b9050919050565b61318381613168565b811461318e57600080fd5b50565b6000813590506131a08161317a565b92915050565b6000602082840312156131bc576131bb613143565b5b60006131ca84828501613191565b91505092915050565b6131dc81613168565b82525050565b6000819050919050565b6131f5816131e2565b82525050565b60a08201600082015161321160008501826131d3565b50602082015161322460208501826131d3565b50604082015161323760408501826131ec565b50606082015161324a60608501826131ec565b50608082015161325d60808501826131ec565b50505050565b600060a08201905061327860008301846131fb565b92915050565b613287816131e2565b82525050565b60006080820190506132a2600083018761327e565b6132af602083018661327e565b6132bc604083018561327e565b6132c9606083018461327e565b95945050505050565b6132db81613168565b82525050565b60006020820190506132f660008301846132d2565b92915050565b60008115159050919050565b613311816132fc565b82525050565b600060208201905061332c6000830184613308565b92915050565b61333b816131e2565b811461334657600080fd5b50565b60008135905061335881613332565b92915050565b60006020828403121561337457613373613143565b5b600061338284828501613349565b91505092915050565b600080600080608085870312156133a5576133a4613143565b5b60006133b387828801613191565b94505060206133c487828801613191565b93505060406133d587828801613191565b92505060606133e687828801613349565b91505092959194509250565b600063ffffffff82169050919050565b61340b816133f2565b82525050565b60006020820190506134266000830184613402565b92915050565b600060a08201905061344160008301886132d2565b61344e60208301876132d2565b61345b604083018661327e565b613468606083018561327e565b613475608083018461327e565b9695505050505050565b6000602082019050613494600083018461327e565b92915050565b600081519050919050565b600082825260208201905092915050565b6000819050602082019050919050565b60006134d283836131d3565b60208301905092915050565b6000602082019050919050565b60006134f68261349a565b61350081856134a5565b935061350b836134b6565b8060005b8381101561353c57815161352388826134c6565b975061352e836134de565b92505060018101905061350f565b5085935050505092915050565b600081519050919050565b600082825260208201905092915050565b6000819050602082019050919050565b60808201600082015161358b60008501826131ec565b50602082015161359e60208501826131ec565b5060408201516135b160408501826131ec565b5060608201516135c460608501826131ec565b50505050565b60006135d68383613575565b60808301905092915050565b6000602082019050919050565b60006135fa82613549565b6136048185613554565b935061360f83613565565b8060005b8381101561364057815161362788826135ca565b9750613632836135e2565b925050600181019050613613565b5085935050505092915050565b6000604082019050818103600083015261366781856134eb565b9050818103602083015261367b81846135ef565b90509392505050565b7f4e487b7100000000000000000000000000000000000000000000000000000000600052602160045260246000fd5b600581106136c4576136c3613684565b5b50565b60008190506136d5826136b3565b919050565b60006136e5826136c7565b9050919050565b6136f5816136da565b82525050565b600060208201905061371060008301846136ec565b92915050565b60808201600082015161372c60008501826131ec565b50602082015161373f60208501826131ec565b50604082015161375260408501826131ec565b50606082015161376560608501826131ec565b50505050565b60006080820190506137806000830184613716565b92915050565b6000806040838503121561379d5761379c613143565b5b60006137ab85828601613191565b92505060206137bc85828601613349565b9150509250929050565b6137cf816133f2565b81146137da57600080fd5b50565b6000813590506137ec816137c6565b92915050565b60006020828403121561380857613807613143565b5b6000613816848285016137dd565b91505092915050565b600082825260208201905092915050565b7f4f776e61626c653a2063616c6c6572206973206e6f7420746865206f776e6572600082015250565b600061386660208361381f565b915061387182613830565b602082019050919050565b6000602082019050818103600083015261389581613859565b9050919050565b7f43616c6c6572206973206e6f742061207374616b657200000000000000000000600082015250565b60006138d260168361381f565b91506138dd8261389c565b602082019050919050565b60006020820190508181036000830152613901816138c5565b9050919050565b7f4d757374206265206120706f736974697665206e756d62657200000000000000600082015250565b600061393e60198361381f565b915061394982613908565b602082019050919050565b6000602082019050818103600083015261396d81613931565b9050919050565b7f496e73756666696369656e7420616d6f756e7420746f20756e7374616b650000600082015250565b60006139aa601e8361381f565b91506139b582613974565b602082019050919050565b600060208201905081810360008301526139d98161399d565b9050919050565b7f546f74616c207374616b652069732062656c6f7720746865206d696e696d756d60008201527f207468726573686f6c6400000000000000000000000000000000000000000000602082015250565b6000613a3c602a8361381f565b9150613a47826139e0565b604082019050919050565b60006020820190508181036000830152613a6b81613a2f565b9050919050565b6000604082019050613a87600083018561327e565b613a94602083018461327e565b9392505050565b7f4d75737420626520612076616c69642061646472657373000000000000000000600082015250565b6000613ad160178361381f565b9150613adc82613a9b565b602082019050919050565b60006020820190508181036000830152613b0081613ac4565b9050919050565b7f536c61736820746f6b656e732065786365656420616c6c6f6361746564206f6e60008201527f6573000000000000000000000000000000000000000000000000000000000000602082015250565b6000613b6360228361381f565b9150613b6e82613b07565b604082019050919050565b60006020820190508181036000830152613b9281613b56565b9050919050565b6000604082019050613bae60008301856132d2565b613bbb602083018461327e565b9392505050565b613bcb816132fc565b8114613bd657600080fd5b50565b600081519050613be881613bc2565b92915050565b600060208284031215613c0457613c03613143565b5b6000613c1284828501613bd9565b91505092915050565b6000606082019050613c3060008301866132d2565b613c3d60208301856132d2565b613c4a604083018461327e565b949350505050565b7f4e487b7100000000000000000000000000000000000000000000000000000000600052604160045260246000fd5b7f4e487b7100000000000000000000000000000000000000000000000000000000600052603260045260246000fd5b7f4e487b7100000000000000000000000000000000000000000000000000000000600052601160045260246000fd5b6000613cea826131e2565b91507fffffffffffffffffffffffffffffffffffffffffffffffffffffffffffffffff821415613d1d57613d1c613cb0565b5b600182019050919050565b7f4f776e61626c653a206e6577206f776e657220697320746865207a65726f206160008201527f6464726573730000000000000000000000000000000000000000000000000000602082015250565b6000613d8460268361381f565b9150613d8f82613d28565b604082019050919050565b60006020820190508181036000830152613db381613d77565b9050919050565b7f5374616b6520686173206e6f20617661696c61626c6520746f6b656e7320666f60008201527f72207769746864726177616c0000000000000000000000000000000000000000602082015250565b6000613e16602c8361381f565b9150613e2182613dba565b604082019050919050565b60006020820190508181036000830152613e4581613e09565b9050919050565b7f416c6c6f636174696f6e20686173206e6f20636f6d706c65746564207374617460008201527f6500000000000000000000000000000000000000000000000000000000000000602082015250565b6000613ea860218361381f565b9150613eb382613e4c565b604082019050919050565b60006020820190508181036000830152613ed781613e9b565b9050919050565b7f416c6c6f636174696f6e2063616e6e6f7420626520636c6f73656420736f206560008201527f61726c7900000000000000000000000000000000000000000000000000000000602082015250565b6000613f3a60248361381f565b9150613f4582613ede565b604082019050919050565b60006020820190508181036000830152613f6981613f2d565b9050919050565b60068110613f7d57600080fd5b50565b600081519050613f8f81613f70565b92915050565b600060208284031215613fab57613faa613143565b5b6000613fb984828501613f80565b91505092915050565b6000613fcd826131e2565b9150613fd8836131e2565b9250827fffffffffffffffffffffffffffffffffffffffffffffffffffffffffffffffff0382111561400d5761400c613cb0565b5b828201905092915050565b7f536166654d6174683a206164646974696f6e206f766572666c6f770000000000600082015250565b600061404e601b8361381f565b915061405982614018565b602082019050919050565b6000602082019050818103600083015261407d81614041565b9050919050565b7f496e73756666696369656e7420616d6f756e74206f6620746f6b656e7320696e60008201527f20746865207374616b6500000000000000000000000000000000000000000000602082015250565b60006140e0602a8361381f565b91506140eb82614084565b604082019050919050565b6000602082019050818103600083015261410f816140d3565b9050919050565b7f416c6c6f636174696f6e20616c72656164792065786973747300000000000000600082015250565b600061414c60198361381f565b915061415782614116565b602082019050919050565b6000602082019050818103600083015261417b8161413f565b9050919050565b600081519050919050565b60005b838110156141ab578082015181840152602081019050614190565b838111156141ba576000848401525b50505050565b6000601f19601f8301169050919050565b60006141dc82614182565b6141e6818561381f565b93506141f681856020860161418d565b6141ff816141c0565b840191505092915050565b6000602082019050818103600083015261422481846141d1565b905092915050565b6000614237826131e2565b9150614242836131e2565b92508282101561425557614254613cb0565b5b828203905092915050565b600061426b826131e2565b9150614276836131e2565b9250817fffffffffffffffffffffffffffffffffffffffffffffffffffffffffffffffff04831182151516156142af576142ae613cb0565b5b828202905092915050565b7f4e487b7100000000000000000000000000000000000000000000000000000000600052601260045260246000fd5b60006142f4826131e2565b91506142ff836131e2565b92508261430f5761430e6142ba565b5b828204905092915050565b7f536166654d6174683a206d756c7469706c69636174696f6e206f766572666c6f60008201527f7700000000000000000000000000000000000000000000000000000000000000602082015250565b600061437660218361381f565b91506143818261431a565b604082019050919050565b600060208201905081810360008301526143a581614369565b905091905056fea2646970667358221220e9b57d6333588866d3e8a23059ba0be4f6c1f5d6d163d95d3befed8cf422e2d964736f6c63430008090033",
  "linkReferences": {},
  "deployedLinkReferences": {}
}