{
  "_format": "hh-sol-artifact-1",
  "contractName": "RewardPool",
  "sourceName": "contracts/RewardPool.sol",
  "abi": [
    {
      "inputs": [
        {
          "internalType": "address",
          "name": "_eip20",
          "type": "address"
        },
        {
          "internalType": "address",
          "name": "_staking",
          "type": "address"
        },
        {
          "internalType": "uint256",
          "name": "_fees",
          "type": "uint256"
        }
      ],
      "stateMutability": "nonpayable",
      "type": "constructor"
    },
    {
      "anonymous": false,
      "inputs": [
        {
          "indexed": true,
          "internalType": "address",
          "name": "escrowAddress",
          "type": "address"
        },
        {
          "indexed": true,
          "internalType": "address",
          "name": "slasher",
          "type": "address"
        },
        {
          "indexed": false,
          "internalType": "uint256",
          "name": "tokens",
          "type": "uint256"
        }
      ],
      "name": "RewardAdded",
      "type": "event"
    },
    {
      "inputs": [
        {
          "internalType": "address",
          "name": "_escrowAddress",
          "type": "address"
        },
        {
          "internalType": "address",
          "name": "_slasher",
          "type": "address"
        },
        {
          "internalType": "uint256",
          "name": "_tokens",
          "type": "uint256"
        }
      ],
      "name": "addReward",
      "outputs": [],
      "stateMutability": "nonpayable",
      "type": "function"
    },
    {
      "inputs": [
        {
          "internalType": "address",
          "name": "_escrowAddress",
          "type": "address"
        }
      ],
      "name": "distributeReward",
      "outputs": [],
      "stateMutability": "nonpayable",
      "type": "function"
    },
    {
      "inputs": [],
      "name": "eip20",
      "outputs": [
        {
          "internalType": "address",
          "name": "",
          "type": "address"
        }
      ],
      "stateMutability": "view",
      "type": "function"
    },
    {
      "inputs": [],
      "name": "fees",
      "outputs": [
        {
          "internalType": "uint256",
          "name": "",
          "type": "uint256"
        }
      ],
      "stateMutability": "view",
      "type": "function"
    },
    {
      "inputs": [
        {
          "internalType": "address",
          "name": "_escrowAddress",
          "type": "address"
        }
      ],
      "name": "getRewards",
      "outputs": [
        {
          "components": [
            {
              "internalType": "address",
              "name": "escrowAddress",
              "type": "address"
            },
            {
              "internalType": "address",
              "name": "slasher",
              "type": "address"
            },
            {
              "internalType": "uint256",
              "name": "tokens",
              "type": "uint256"
            }
          ],
          "internalType": "struct IRewardPool.Reward[]",
          "name": "",
          "type": "tuple[]"
        }
      ],
      "stateMutability": "view",
      "type": "function"
    },
    {
      "inputs": [
        {
          "internalType": "address",
          "name": "",
          "type": "address"
        },
        {
          "internalType": "uint256",
          "name": "",
          "type": "uint256"
        }
      ],
      "name": "rewards",
      "outputs": [
        {
          "internalType": "address",
          "name": "escrowAddress",
          "type": "address"
        },
        {
          "internalType": "address",
          "name": "slasher",
          "type": "address"
        },
        {
          "internalType": "uint256",
          "name": "tokens",
          "type": "uint256"
        }
      ],
      "stateMutability": "view",
      "type": "function"
    },
    {
      "inputs": [],
      "name": "staking",
      "outputs": [
        {
          "internalType": "address",
          "name": "",
          "type": "address"
        }
      ],
      "stateMutability": "view",
      "type": "function"
    }
  ],
  "bytecode": "0x60e06040523480156200001157600080fd5b50604051620010c6380380620010c6833981810160405281019062000037919062000155565b8273ffffffffffffffffffffffffffffffffffffffff1660808173ffffffffffffffffffffffffffffffffffffffff16815250508173ffffffffffffffffffffffffffffffffffffffff1660a08173ffffffffffffffffffffffffffffffffffffffff16815250508060c08181525050505050620001b1565b600080fd5b600073ffffffffffffffffffffffffffffffffffffffff82169050919050565b6000620000e282620000b5565b9050919050565b620000f481620000d5565b81146200010057600080fd5b50565b6000815190506200011481620000e9565b92915050565b6000819050919050565b6200012f816200011a565b81146200013b57600080fd5b50565b6000815190506200014f8162000124565b92915050565b600080600060608486031215620001715762000170620000b0565b5b6000620001818682870162000103565b9350506020620001948682870162000103565b9250506040620001a7868287016200013e565b9150509250925092565b60805160a05160c051610ec9620001fd600039600081816105ac015281816106e50152610714015260008181610435015261066e0152600081816102c801526104110152610ec96000f3fe608060405234801561001057600080fd5b506004361061007d5760003560e01c806379ee54f71161005b57806379ee54f7146100da5780639af1d35a1461010a578063b933ceac14610128578063d0ed26ae1461015a5761007d565b8063092193ab14610082578063196214d31461009e5780634cf088d9146100bc575b600080fd5b61009c600480360381019061009791906109ee565b610176565b005b6100a661040f565b6040516100b39190610a2a565b60405180910390f35b6100c4610433565b6040516100d19190610a2a565b60405180910390f35b6100f460048036038101906100ef91906109ee565b610457565b6040516101019190610b5e565b60405180910390f35b6101126105aa565b60405161011f9190610b8f565b60405180910390f35b610142600480360381019061013d9190610bd6565b6105ce565b60405161015193929190610c16565b60405180910390f35b610174600480360381019061016f9190610c4d565b610655565b005b60008060008373ffffffffffffffffffffffffffffffffffffffff1673ffffffffffffffffffffffffffffffffffffffff168152602001908152602001600020805480602002602001604051908101604052809291908181526020016000905b828210156102be57838290600052602060002090600302016040518060600160405290816000820160009054906101000a900473ffffffffffffffffffffffffffffffffffffffff1673ffffffffffffffffffffffffffffffffffffffff1673ffffffffffffffffffffffffffffffffffffffff1681526020016001820160009054906101000a900473ffffffffffffffffffffffffffffffffffffffff1673ffffffffffffffffffffffffffffffffffffffff1673ffffffffffffffffffffffffffffffffffffffff168152602001600282015481525050815260200190600101906101d6565b50505050905060007f000000000000000000000000000000000000000000000000000000000000000090506000808473ffffffffffffffffffffffffffffffffffffffff1673ffffffffffffffffffffffffffffffffffffffff168152602001908152602001600020600061033391906108fa565b60005b825181101561040957600083828151811061035457610353610ca0565b5b602002602001015190508273ffffffffffffffffffffffffffffffffffffffff1663a9059cbb826020015183604001516040518363ffffffff1660e01b81526004016103a1929190610ccf565b602060405180830381600087803b1580156103bb57600080fd5b505af11580156103cf573d6000803e3d6000fd5b505050506040513d601f19601f820116820180604052508101906103f39190610d30565b50506001816104029190610d8c565b9050610336565b50505050565b7f000000000000000000000000000000000000000000000000000000000000000081565b7f000000000000000000000000000000000000000000000000000000000000000081565b60606000808373ffffffffffffffffffffffffffffffffffffffff1673ffffffffffffffffffffffffffffffffffffffff168152602001908152602001600020805480602002602001604051908101604052809291908181526020016000905b8282101561059f57838290600052602060002090600302016040518060600160405290816000820160009054906101000a900473ffffffffffffffffffffffffffffffffffffffff1673ffffffffffffffffffffffffffffffffffffffff1673ffffffffffffffffffffffffffffffffffffffff1681526020016001820160009054906101000a900473ffffffffffffffffffffffffffffffffffffffff1673ffffffffffffffffffffffffffffffffffffffff1673ffffffffffffffffffffffffffffffffffffffff168152602001600282015481525050815260200190600101906104b7565b505050509050919050565b7f000000000000000000000000000000000000000000000000000000000000000081565b600060205281600052604060002081815481106105ea57600080fd5b9060005260206000209060030201600091509150508060000160009054906101000a900473ffffffffffffffffffffffffffffffffffffffff16908060010160009054906101000a900473ffffffffffffffffffffffffffffffffffffffff16908060020154905083565b3373ffffffffffffffffffffffffffffffffffffffff167f000000000000000000000000000000000000000000000000000000000000000073ffffffffffffffffffffffffffffffffffffffff16146106e3576040517f08c379a00000000000000000000000000000000000000000000000000000000081526004016106da90610e3f565b60405180910390fd5b7f0000000000000000000000000000000000000000000000000000000000000000811015610710576108f5565b60007f00000000000000000000000000000000000000000000000000000000000000008261073e9190610e5f565b9050600060405180606001604052808673ffffffffffffffffffffffffffffffffffffffff1681526020018573ffffffffffffffffffffffffffffffffffffffff1681526020018381525090506000808673ffffffffffffffffffffffffffffffffffffffff1673ffffffffffffffffffffffffffffffffffffffff16815260200190815260200160002081908060018154018082558091505060019003906000526020600020906003020160009091909190915060008201518160000160006101000a81548173ffffffffffffffffffffffffffffffffffffffff021916908373ffffffffffffffffffffffffffffffffffffffff16021790555060208201518160010160006101000a81548173ffffffffffffffffffffffffffffffffffffffff021916908373ffffffffffffffffffffffffffffffffffffffff1602179055506040820151816002015550508373ffffffffffffffffffffffffffffffffffffffff168573ffffffffffffffffffffffffffffffffffffffff167f0f7cde3c0518e1cc590491be5861d70a2e333f7e65af2e1ebd91a3c9a3cc638d846040516108ea9190610b8f565b60405180910390a350505b505050565b508054600082556003029060005260206000209081019061091b919061091e565b50565b5b8082111561098757600080820160006101000a81549073ffffffffffffffffffffffffffffffffffffffff02191690556001820160006101000a81549073ffffffffffffffffffffffffffffffffffffffff021916905560028201600090555060030161091f565b5090565b600080fd5b600073ffffffffffffffffffffffffffffffffffffffff82169050919050565b60006109bb82610990565b9050919050565b6109cb816109b0565b81146109d657600080fd5b50565b6000813590506109e8816109c2565b92915050565b600060208284031215610a0457610a0361098b565b5b6000610a12848285016109d9565b91505092915050565b610a24816109b0565b82525050565b6000602082019050610a3f6000830184610a1b565b92915050565b600081519050919050565b600082825260208201905092915050565b6000819050602082019050919050565b610a7a816109b0565b82525050565b6000819050919050565b610a9381610a80565b82525050565b606082016000820151610aaf6000850182610a71565b506020820151610ac26020850182610a71565b506040820151610ad56040850182610a8a565b50505050565b6000610ae78383610a99565b60608301905092915050565b6000602082019050919050565b6000610b0b82610a45565b610b158185610a50565b9350610b2083610a61565b8060005b83811015610b51578151610b388882610adb565b9750610b4383610af3565b925050600181019050610b24565b5085935050505092915050565b60006020820190508181036000830152610b788184610b00565b905092915050565b610b8981610a80565b82525050565b6000602082019050610ba46000830184610b80565b92915050565b610bb381610a80565b8114610bbe57600080fd5b50565b600081359050610bd081610baa565b92915050565b60008060408385031215610bed57610bec61098b565b5b6000610bfb858286016109d9565b9250506020610c0c85828601610bc1565b9150509250929050565b6000606082019050610c2b6000830186610a1b565b610c386020830185610a1b565b610c456040830184610b80565b949350505050565b600080600060608486031215610c6657610c6561098b565b5b6000610c74868287016109d9565b9350506020610c85868287016109d9565b9250506040610c9686828701610bc1565b9150509250925092565b7f4e487b7100000000000000000000000000000000000000000000000000000000600052603260045260246000fd5b6000604082019050610ce46000830185610a1b565b610cf16020830184610b80565b9392505050565b60008115159050919050565b610d0d81610cf8565b8114610d1857600080fd5b50565b600081519050610d2a81610d04565b92915050565b600060208284031215610d4657610d4561098b565b5b6000610d5484828501610d1b565b91505092915050565b7f4e487b7100000000000000000000000000000000000000000000000000000000600052601160045260246000fd5b6000610d9782610a80565b9150610da283610a80565b9250827fffffffffffffffffffffffffffffffffffffffffffffffffffffffffffffffff03821115610dd757610dd6610d5d565b5b828201905092915050565b600082825260208201905092915050565b7f43616c6c6572206973206e6f74207374616b696e6720636f6e74726163740000600082015250565b6000610e29601e83610de2565b9150610e3482610df3565b602082019050919050565b60006020820190508181036000830152610e5881610e1c565b9050919050565b6000610e6a82610a80565b9150610e7583610a80565b925082821015610e8857610e87610d5d565b5b82820390509291505056fea2646970667358221220b12e31d016d2030b818a6b533e17d4e51cecd01ba63196fb1826829efb19353664736f6c63430008090033",
  "linkReferences": {},
  "deployedLinkReferences": {}
}